{
  "_format": "hh-sol-artifact-1",
  "contractName": "CrowdChain",
  "sourceName": "src/contracts/CrowdChain.sol",
  "abi": [
    {
      "inputs": [
        {
          "internalType": "uint256",
          "name": "_projectTax",
          "type": "uint256"
        }
      ],
      "stateMutability": "nonpayable",
      "type": "constructor"
    },
    {
      "anonymous": false,
      "inputs": [
        {
          "indexed": false,
          "internalType": "uint256",
          "name": "id",
          "type": "uint256"
        },
        {
          "indexed": false,
          "internalType": "string",
          "name": "actionType",
          "type": "string"
        },
        {
          "indexed": true,
          "internalType": "address",
          "name": "executor",
          "type": "address"
        },
        {
          "indexed": false,
          "internalType": "uint256",
          "name": "timestamp",
          "type": "uint256"
        }
      ],
      "name": "Action",
      "type": "event"
    },
    {
      "anonymous": false,
      "inputs": [
        {
          "indexed": false,
          "internalType": "uint256",
          "name": "projectId",
          "type": "uint256"
        },
        {
          "indexed": false,
          "internalType": "uint256",
          "name": "milestoneId",
          "type": "uint256"
        },
        {
          "indexed": false,
          "internalType": "string",
          "name": "actionType",
          "type": "string"
        },
        {
          "indexed": true,
          "internalType": "address",
          "name": "executor",
          "type": "address"
        },
        {
          "indexed": false,
          "internalType": "uint256",
          "name": "timestamp",
          "type": "uint256"
        }
      ],
      "name": "MilestoneAction",
      "type": "event"
    },
    {
      "stateMutability": "payable",
      "type": "fallback"
    },
    {
      "inputs": [
        {
          "internalType": "uint256",
          "name": "id",
          "type": "uint256"
        }
      ],
      "name": "backProject",
      "outputs": [
        {
          "internalType": "bool",
          "name": "",
          "type": "bool"
        }
      ],
      "stateMutability": "payable",
      "type": "function"
    },
    {
      "inputs": [],
      "name": "balance",
      "outputs": [
        {
          "internalType": "uint256",
          "name": "",
          "type": "uint256"
        }
      ],
      "stateMutability": "view",
      "type": "function"
    },
    {
      "inputs": [
        {
          "internalType": "uint256",
          "name": "_taxPct",
          "type": "uint256"
        }
      ],
      "name": "changeTax",
      "outputs": [],
      "stateMutability": "nonpayable",
      "type": "function"
    },
    {
      "inputs": [
        {
          "internalType": "uint256",
          "name": "projectId",
          "type": "uint256"
        },
        {
          "internalType": "string",
          "name": "title",
          "type": "string"
        },
        {
          "internalType": "string",
          "name": "description",
          "type": "string"
        },
        {
          "internalType": "uint256",
          "name": "amount",
          "type": "uint256"
        }
      ],
      "name": "createMilestone",
      "outputs": [
        {
          "internalType": "bool",
          "name": "",
          "type": "bool"
        }
      ],
      "stateMutability": "nonpayable",
      "type": "function"
    },
    {
      "inputs": [
        {
          "internalType": "uint256",
          "name": "projectId",
          "type": "uint256"
        },
        {
          "internalType": "string[]",
          "name": "titles",
          "type": "string[]"
        },
        {
          "internalType": "string[]",
          "name": "descriptions",
          "type": "string[]"
        },
        {
          "internalType": "uint256[]",
          "name": "amounts",
          "type": "uint256[]"
        }
      ],
      "name": "createMultipleMilestones",
      "outputs": [
        {
          "internalType": "bool",
          "name": "",
          "type": "bool"
        }
      ],
      "stateMutability": "nonpayable",
      "type": "function"
    },
    {
      "inputs": [
        {
          "internalType": "string",
          "name": "title",
          "type": "string"
        },
        {
          "internalType": "string",
          "name": "description",
          "type": "string"
        },
        {
          "internalType": "string",
          "name": "imageURL",
          "type": "string"
        },
        {
          "internalType": "uint256",
          "name": "cost",
          "type": "uint256"
        },
        {
          "internalType": "uint256",
          "name": "expiresAt",
          "type": "uint256"
        },
        {
          "internalType": "bool",
          "name": "_hasMilestones",
          "type": "bool"
        }
      ],
      "name": "createProject",
      "outputs": [
        {
          "internalType": "bool",
          "name": "",
          "type": "bool"
        }
      ],
      "stateMutability": "nonpayable",
      "type": "function"
    },
    {
      "inputs": [
        {
          "internalType": "uint256",
          "name": "id",
          "type": "uint256"
        }
      ],
      "name": "deleteProject",
      "outputs": [
        {
          "internalType": "bool",
          "name": "",
          "type": "bool"
        }
      ],
      "stateMutability": "nonpayable",
      "type": "function"
    },
    {
      "inputs": [
        {
          "internalType": "uint256",
          "name": "projectId",
          "type": "uint256"
        },
        {
          "internalType": "uint256",
          "name": "milestoneId",
          "type": "uint256"
        }
      ],
      "name": "executeMilestone",
      "outputs": [
        {
          "internalType": "bool",
          "name": "",
          "type": "bool"
        }
      ],
      "stateMutability": "nonpayable",
      "type": "function"
    },
    {
      "inputs": [
        {
          "internalType": "uint256",
          "name": "id",
          "type": "uint256"
        }
      ],
      "name": "getBackers",
      "outputs": [
        {
          "components": [
            {
              "internalType": "address",
              "name": "owner",
              "type": "address"
            },
            {
              "internalType": "uint256",
              "name": "contribution",
              "type": "uint256"
            },
            {
              "internalType": "uint256",
              "name": "timestamp",
              "type": "uint256"
            },
            {
              "internalType": "bool",
              "name": "refunded",
              "type": "bool"
            }
          ],
          "internalType": "struct CrowdChain.backerStruct[]",
          "name": "",
          "type": "tuple[]"
        }
      ],
      "stateMutability": "view",
      "type": "function"
    },
    {
      "inputs": [
        {
          "internalType": "uint256",
          "name": "projectId",
          "type": "uint256"
        },
        {
          "internalType": "uint256",
          "name": "milestoneId",
          "type": "uint256"
        }
      ],
      "name": "getMilestone",
      "outputs": [
        {
          "components": [
            {
              "internalType": "uint256",
              "name": "id",
              "type": "uint256"
            },
            {
              "internalType": "string",
              "name": "title",
              "type": "string"
            },
            {
              "internalType": "string",
              "name": "description",
              "type": "string"
            },
            {
              "internalType": "uint256",
              "name": "amount",
              "type": "uint256"
            },
            {
              "internalType": "uint256",
              "name": "yesVotes",
              "type": "uint256"
            },
            {
              "internalType": "uint256",
              "name": "noVotes",
              "type": "uint256"
            },
            {
              "internalType": "uint256",
              "name": "createdAt",
              "type": "uint256"
            },
            {
              "internalType": "uint256",
              "name": "completedAt",
              "type": "uint256"
            },
            {
              "internalType": "enum CrowdChain.milestoneStatusEnum",
              "name": "status",
              "type": "uint8"
            }
          ],
          "internalType": "struct CrowdChain.milestoneStruct",
          "name": "",
          "type": "tuple"
        }
      ],
      "stateMutability": "view",
      "type": "function"
    },
    {
      "inputs": [
        {
          "internalType": "uint256",
          "name": "projectId",
          "type": "uint256"
        }
      ],
      "name": "getMilestones",
      "outputs": [
        {
          "components": [
            {
              "internalType": "uint256",
              "name": "id",
              "type": "uint256"
            },
            {
              "internalType": "string",
              "name": "title",
              "type": "string"
            },
            {
              "internalType": "string",
              "name": "description",
              "type": "string"
            },
            {
              "internalType": "uint256",
              "name": "amount",
              "type": "uint256"
            },
            {
              "internalType": "uint256",
              "name": "yesVotes",
              "type": "uint256"
            },
            {
              "internalType": "uint256",
              "name": "noVotes",
              "type": "uint256"
            },
            {
              "internalType": "uint256",
              "name": "createdAt",
              "type": "uint256"
            },
            {
              "internalType": "uint256",
              "name": "completedAt",
              "type": "uint256"
            },
            {
              "internalType": "enum CrowdChain.milestoneStatusEnum",
              "name": "status",
              "type": "uint8"
            }
          ],
          "internalType": "struct CrowdChain.milestoneStruct[]",
          "name": "",
          "type": "tuple[]"
        }
      ],
      "stateMutability": "view",
      "type": "function"
    },
    {
      "inputs": [
        {
          "internalType": "uint256",
          "name": "id",
          "type": "uint256"
        }
      ],
      "name": "getProject",
      "outputs": [
        {
          "components": [
            {
              "internalType": "uint256",
              "name": "id",
              "type": "uint256"
            },
            {
              "internalType": "address",
              "name": "owner",
              "type": "address"
            },
            {
              "internalType": "string",
              "name": "title",
              "type": "string"
            },
            {
              "internalType": "string",
              "name": "description",
              "type": "string"
            },
            {
              "internalType": "string",
              "name": "imageURL",
              "type": "string"
            },
            {
              "internalType": "uint256",
              "name": "cost",
              "type": "uint256"
            },
            {
              "internalType": "uint256",
              "name": "raised",
              "type": "uint256"
            },
            {
              "internalType": "uint256",
              "name": "timestamp",
              "type": "uint256"
            },
            {
              "internalType": "uint256",
              "name": "expiresAt",
              "type": "uint256"
            },
            {
              "internalType": "uint256",
              "name": "backers",
              "type": "uint256"
            },
            {
              "internalType": "uint256",
              "name": "milestoneCount",
              "type": "uint256"
            },
            {
              "internalType": "uint256",
              "name": "milestonesCompleted",
              "type": "uint256"
            },
            {
              "internalType": "bool",
              "name": "hasMilestones",
              "type": "bool"
            },
            {
              "internalType": "enum CrowdChain.statusEnum",
              "name": "status",
              "type": "uint8"
            }
          ],
          "internalType": "struct CrowdChain.projectStruct",
          "name": "",
          "type": "tuple"
        }
      ],
      "stateMutability": "view",
      "type": "function"
    },
    {
      "inputs": [],
      "name": "getProjects",
      "outputs": [
        {
          "components": [
            {
              "internalType": "uint256",
              "name": "id",
              "type": "uint256"
            },
            {
              "internalType": "address",
              "name": "owner",
              "type": "address"
            },
            {
              "internalType": "string",
              "name": "title",
              "type": "string"
            },
            {
              "internalType": "string",
              "name": "description",
              "type": "string"
            },
            {
              "internalType": "string",
              "name": "imageURL",
              "type": "string"
            },
            {
              "internalType": "uint256",
              "name": "cost",
              "type": "uint256"
            },
            {
              "internalType": "uint256",
              "name": "raised",
              "type": "uint256"
            },
            {
              "internalType": "uint256",
              "name": "timestamp",
              "type": "uint256"
            },
            {
              "internalType": "uint256",
              "name": "expiresAt",
              "type": "uint256"
            },
            {
              "internalType": "uint256",
              "name": "backers",
              "type": "uint256"
            },
            {
              "internalType": "uint256",
              "name": "milestoneCount",
              "type": "uint256"
            },
            {
              "internalType": "uint256",
              "name": "milestonesCompleted",
              "type": "uint256"
            },
            {
              "internalType": "bool",
              "name": "hasMilestones",
              "type": "bool"
            },
            {
              "internalType": "enum CrowdChain.statusEnum",
              "name": "status",
              "type": "uint8"
            }
          ],
          "internalType": "struct CrowdChain.projectStruct[]",
          "name": "",
          "type": "tuple[]"
        }
      ],
      "stateMutability": "view",
      "type": "function"
    },
    {
      "inputs": [
        {
          "internalType": "uint256",
          "name": "",
          "type": "uint256"
        },
        {
          "internalType": "address",
          "name": "",
          "type": "address"
        },
        {
          "internalType": "uint256",
          "name": "",
          "type": "uint256"
        }
      ],
      "name": "milestoneVoted",
      "outputs": [
        {
          "internalType": "bool",
          "name": "",
          "type": "bool"
        }
      ],
      "stateMutability": "view",
      "type": "function"
    },
    {
      "inputs": [],
      "name": "owner",
      "outputs": [
        {
          "internalType": "address",
          "name": "",
          "type": "address"
        }
      ],
      "stateMutability": "view",
      "type": "function"
    },
    {
      "inputs": [
        {
          "internalType": "uint256",
          "name": "id",
          "type": "uint256"
        }
      ],
      "name": "payOutProject",
      "outputs": [
        {
          "internalType": "bool",
          "name": "",
          "type": "bool"
        }
      ],
      "stateMutability": "nonpayable",
      "type": "function"
    },
    {
      "inputs": [],
      "name": "projectCount",
      "outputs": [
        {
          "internalType": "uint256",
          "name": "",
          "type": "uint256"
        }
      ],
      "stateMutability": "view",
      "type": "function"
    },
    {
      "inputs": [
        {
          "internalType": "uint256",
          "name": "",
          "type": "uint256"
        }
      ],
      "name": "projectExist",
      "outputs": [
        {
          "internalType": "bool",
          "name": "",
          "type": "bool"
        }
      ],
      "stateMutability": "view",
      "type": "function"
    },
    {
      "inputs": [],
      "name": "projectTax",
      "outputs": [
        {
          "internalType": "uint256",
          "name": "",
          "type": "uint256"
        }
      ],
      "stateMutability": "view",
      "type": "function"
    },
    {
      "inputs": [
        {
          "internalType": "uint256",
          "name": "projectId",
          "type": "uint256"
        },
        {
          "internalType": "uint256",
          "name": "milestoneId",
          "type": "uint256"
        }
      ],
      "name": "rejectMilestone",
      "outputs": [
        {
          "internalType": "bool",
          "name": "",
          "type": "bool"
        }
      ],
      "stateMutability": "nonpayable",
      "type": "function"
    },
    {
      "inputs": [
        {
          "internalType": "uint256",
          "name": "id",
          "type": "uint256"
        }
      ],
      "name": "requestRefund",
      "outputs": [
        {
          "internalType": "bool",
          "name": "",
          "type": "bool"
        }
      ],
      "stateMutability": "nonpayable",
      "type": "function"
    },
    {
      "inputs": [],
      "name": "stats",
      "outputs": [
        {
          "internalType": "uint256",
          "name": "totalProjects",
          "type": "uint256"
        },
        {
          "internalType": "uint256",
          "name": "totalBacking",
          "type": "uint256"
        },
        {
          "internalType": "uint256",
          "name": "totalDonations",
          "type": "uint256"
        },
        {
          "internalType": "uint256",
          "name": "totalMilestones",
          "type": "uint256"
        },
        {
          "internalType": "uint256",
          "name": "totalMilestonesCompleted",
          "type": "uint256"
        }
      ],
      "stateMutability": "view",
      "type": "function"
    },
    {
      "inputs": [
        {
          "internalType": "uint256",
          "name": "id",
          "type": "uint256"
        },
        {
          "internalType": "string",
          "name": "title",
          "type": "string"
        },
        {
          "internalType": "string",
          "name": "description",
          "type": "string"
        },
        {
          "internalType": "string",
          "name": "imageURL",
          "type": "string"
        },
        {
          "internalType": "uint256",
          "name": "expiresAt",
          "type": "uint256"
        }
      ],
      "name": "updateProject",
      "outputs": [
        {
          "internalType": "bool",
          "name": "",
          "type": "bool"
        }
      ],
      "stateMutability": "nonpayable",
      "type": "function"
    },
    {
      "inputs": [
        {
          "internalType": "uint256",
          "name": "projectId",
          "type": "uint256"
        },
        {
          "internalType": "uint256",
          "name": "milestoneId",
          "type": "uint256"
        },
        {
          "internalType": "bool",
          "name": "approve",
          "type": "bool"
        }
      ],
      "name": "voteMilestone",
      "outputs": [
        {
          "internalType": "bool",
          "name": "",
          "type": "bool"
        }
      ],
      "stateMutability": "nonpayable",
      "type": "function"
    },
    {
      "stateMutability": "payable",
      "type": "receive"
    }
  ],
  "bytecode": "0x60806040523480156200001157600080fd5b50604051620045a8380380620045a8833981016040819052620000349162000054565b6001600081905580546001600160a01b031916331790556002556200006e565b6000602082840312156200006757600080fd5b5051919050565b61452a806200007e6000396000f3fe60806040526004361061014f5760003560e01c80639a3fa8c7116100b6578063b69ef8a81161006f578063b69ef8a81461043e578063c9168b7214610454578063d24cd3ec14610481578063d80528ae14610497578063dcc60128146104e6578063f0f3f2c81461050857610175565b80639a3fa8c71461038b5780639f39a194146103ab578063a4b2409e146103be578063a5ff7b83146103de578063b317323f146103fe578063b531dcba1461041e57610175565b8063691a465c11610108578063691a465c146102965780638593054b146102b65780638da5cb5b146102e65780638ed9895c1461031e578063918cb2411461034b57806397da8ece1461036b57610175565b806336fbad261461018d5780633abe6bd7146101b65780633e45c8af146101e657806342c549c0146102085780634cd0cb28146102355780636673dbf21461025557610175565b366101755760405162461bcd60e51b815260040161016c9061393b565b60405180910390fd5b60405162461bcd60e51b815260040161016c9061393b565b34801561019957600080fd5b506101a360035481565b6040519081526020015b60405180910390f35b3480156101c257600080fd5b506101d66101d136600461397e565b610535565b60405190151581526020016101ad565b3480156101f257600080fd5b506102066102013660046139a0565b610762565b005b34801561021457600080fd5b506102286102233660046139a0565b6107b7565b6040516101ad9190613abc565b34801561024157600080fd5b506101d66102503660046139a0565b6109e2565b34801561026157600080fd5b506101d6610270366004613b1e565b600f60209081526000938452604080852082529284528284209052825290205460ff1681565b3480156102a257600080fd5b506101d66102b136600461397e565b610b7c565b3480156102c257600080fd5b506101d66102d13660046139a0565b600d6020526000908152604090205460ff1681565b3480156102f257600080fd5b50600154610306906001600160a01b031681565b6040516001600160a01b0390911681526020016101ad565b34801561032a57600080fd5b5061033e61033936600461397e565b610ff1565b6040516101ad9190613b62565b34801561035757600080fd5b506101d6610366366004613b8c565b61123d565b34801561037757600080fd5b506101d6610386366004613d2c565b611608565b34801561039757600080fd5b506101d66103a6366004613e12565b611bc4565b6101d66103b93660046139a0565b611de3565b3480156103ca57600080fd5b506101d66103d93660046139a0565b61221c565b3480156103ea57600080fd5b506101d66103f9366004613eac565b612366565b34801561040a57600080fd5b506101d6610419366004613f57565b6127e6565b34801561042a57600080fd5b506101d66104393660046139a0565b612bd3565b34801561044a57600080fd5b506101a360045481565b34801561046057600080fd5b5061047461046f3660046139a0565b612ddf565b6040516101ad9190613fcc565b34801561048d57600080fd5b506101a360025481565b3480156104a357600080fd5b506005546006546007546008546009546104be949392919085565b604080519586526020860194909452928401919091526060830152608082015260a0016101ad565b3480156104f257600080fd5b506104fb612e76565b6040516101ad9190614134565b34801561051457600080fd5b506105286105233660046139a0565b613138565b6040516101ad9190614189565b6001546000906001600160a01b031633146105885760405162461bcd60e51b81526020600482015260136024820152724f776e6572207265736572766564206f6e6c7960681b604482015260640161016c565b6000838152600d6020526040902054839060ff166105b85760405162461bcd60e51b815260040161016c9061419c565b600a84815481106105cb576105cb6141c7565b60009182526020909120600c600d90920201015460ff166105fe5760405162461bcd60e51b815260040161016c906141dd565b600a8481548110610611576106116141c7565b90600052602060002090600d0201600a015483106106415760405162461bcd60e51b815260040161016c90614220565b6000848152600e60205260408120805485908110610661576106616141c7565b600091825260209091206008600990920201015460ff16600381111561068957610689613a06565b146106a65760405162461bcd60e51b815260040161016c9061424d565b6000848152600e60205260409020805460029190859081106106ca576106ca6141c7565b60009182526020909120600860099092020101805460ff191660018360038111156106f7576106f7613a06565b021790555060408051858152602081018590526080818301819052601290820152711352531154d513d391481491529150d5115160721b60a0820152426060820152905133916000805160206144d5833981519152919081900360c00190a2600191505b5092915050565b6001546001600160a01b031633146107b25760405162461bcd60e51b81526020600482015260136024820152724f776e6572207265736572766564206f6e6c7960681b604482015260640161016c565b600255565b6000818152600d602052604090205460609060ff166107e85760405162461bcd60e51b815260040161016c9061419c565b6000828152600e6020908152604080832080548251818502810185019093528083529193909284015b828210156109d75783829060005260206000209060090201604051806101200160405290816000820154815260200160018201805461084f90614284565b80601f016020809104026020016040519081016040528092919081815260200182805461087b90614284565b80156108c85780601f1061089d576101008083540402835291602001916108c8565b820191906000526020600020905b8154815290600101906020018083116108ab57829003601f168201915b505050505081526020016002820180546108e190614284565b80601f016020809104026020016040519081016040528092919081815260200182805461090d90614284565b801561095a5780601f1061092f5761010080835404028352916020019161095a565b820191906000526020600020905b81548152906001019060200180831161093d57829003601f168201915b50505091835250506003828101546020830152600483015460408301526005830154606083015260068301546080830152600783015460a0830152600883015460c09092019160ff16908111156109b3576109b3613a06565b60038111156109c4576109c4613a06565b8152505081526020019060010190610811565b505050509050919050565b60006109ec61341b565b6000600a8381548110610a0157610a016141c7565b90600052602060002090600d0201600c0160019054906101000a900460ff166004811115610a3157610a31613a06565b14610a795760405162461bcd60e51b8152602060048201526018602482015277141c9bda9958dd081b9bc81b1bdb99d95c881bdc195b995960421b604482015260640161016c565b600a8281548110610a8c57610a8c6141c7565b60009182526020909120600d90910201600101546001600160a01b03163314610ac75760405162461bcd60e51b815260040161016c906142bf565b6003600a8381548110610adc57610adc6141c7565b60009182526020909120600c600d9092020101805461ff001916610100836004811115610b0b57610b0b613a06565b0217905550610b1982613475565b60408051838152606060208201819052600f908201526e141493d29150d50811115311551151608a1b60808201524281830152905133916000805160206144b5833981519152919081900360a00190a25060015b610b776001600055565b919050565b6000828152600d6020526040812054839060ff16610bac5760405162461bcd60e51b815260040161016c9061419c565b610bb461341b565b600a8481548110610bc757610bc76141c7565b60009182526020909120600d90910201600101546001600160a01b0316331480610bfb57506001546001600160a01b031633145b610c6d5760405162461bcd60e51b815260206004820152603a60248201527f4f6e6c792070726f6a656374206f776e6572206f7220636f6e7472616374206f60448201527f776e65722063616e2065786563757465206d696c6573746f6e65000000000000606482015260840161016c565b600a8481548110610c8057610c806141c7565b60009182526020909120600c600d90920201015460ff16610cb35760405162461bcd60e51b815260040161016c906141dd565b600a8481548110610cc657610cc66141c7565b90600052602060002090600d0201600a01548310610cf65760405162461bcd60e51b815260040161016c90614220565b6000848152600e60205260408120805485908110610d1657610d166141c7565b600091825260209091206008600990920201015460ff166003811115610d3e57610d3e613a06565b14610d5b5760405162461bcd60e51b815260040161016c9061424d565b6000848152600e60205260409020805484908110610d7b57610d7b6141c7565b906000526020600020906009020160050154600e60008681526020019081526020016000208481548110610db157610db16141c7565b90600052602060002090600902016004015411610e215760405162461bcd60e51b815260206004820152602860248201527f4d696c6573746f6e6520646f6573206e6f74206861766520656e6f7567682079604482015267657320766f74657360c01b606482015260840161016c565b6000848152600e6020526040902080546003919085908110610e4557610e456141c7565b60009182526020909120600860099092020101805460ff19166001836003811115610e7257610e72613a06565b02179055506000848152600e60205260409020805442919085908110610e9a57610e9a6141c7565b9060005260206000209060090201600701819055506001600a8581548110610ec457610ec46141c7565b90600052602060002090600d0201600b016000828254610ee49190614302565b90915550506009805460019190600090610eff908490614302565b90915550506000848152600e60205260408120805485908110610f2457610f246141c7565b9060005260206000209060090201600301549050610f71600a8681548110610f4e57610f4e6141c7565b600091825260209091206001600d9092020101546001600160a01b0316826135e3565b8060046000828254610f83919061431a565b909155505060408051868152602081018690526080818301819052601290820152711352531154d513d3914811561150d555115160721b60a0820152426060820152905133916000805160206144d5833981519152919081900360c00190a2600192505061075b6001600055565b610ff96137c1565b6000838152600d602052604090205460ff166110275760405162461bcd60e51b815260040161016c9061419c565b600a838154811061103a5761103a6141c7565b90600052602060002090600d0201600a0154821061106a5760405162461bcd60e51b815260040161016c90614220565b6000838152600e6020526040902080548390811061108a5761108a6141c7565b906000526020600020906009020160405180610120016040529081600082015481526020016001820180546110be90614284565b80601f01602080910402602001604051908101604052809291908181526020018280546110ea90614284565b80156111375780601f1061110c57610100808354040283529160200191611137565b820191906000526020600020905b81548152906001019060200180831161111a57829003601f168201915b5050505050815260200160028201805461115090614284565b80601f016020809104026020016040519081016040528092919081815260200182805461117c90614284565b80156111c95780601f1061119e576101008083540402835291602001916111c9565b820191906000526020600020905b8154815290600101906020018083116111ac57829003601f168201915b50505091835250506003828101546020830152600483015460408301526005830154606083015260068301546080830152600783015460a0830152600883015460c09092019160ff169081111561122257611222613a06565b600381111561123357611233613a06565b9052509392505050565b6000838152600d6020526040812054849060ff1661126d5760405162461bcd60e51b815260040161016c9061419c565b846000805b6000838152600c60205260409020548110156112e6576000838152600c602052604090208054339190839081106112ab576112ab6141c7565b60009182526020909120600490910201546001600160a01b031614156112d457600191506112e6565b806112de81614331565b915050611272565b50806113455760405162461bcd60e51b815260206004820152602860248201527f4f6e6c7920636f6e7472696275746f72732063616e20766f7465206f6e206d696044820152676c6573746f6e657360c01b606482015260840161016c565b600a8781548110611358576113586141c7565b60009182526020909120600c600d90920201015460ff1661138b5760405162461bcd60e51b815260040161016c906141dd565b600a878154811061139e5761139e6141c7565b90600052602060002090600d0201600a015486106113ce5760405162461bcd60e51b815260040161016c90614220565b6000878152600e602052604081208054889081106113ee576113ee6141c7565b600091825260209091206008600990920201015460ff16600381111561141657611416613a06565b146114335760405162461bcd60e51b815260040161016c9061424d565b6000878152600f60209081526040808320338452825280832089845290915290205460ff16156114a55760405162461bcd60e51b815260206004820152601f60248201527f416c726561647920766f746564206f6e2074686973206d696c6573746f6e6500604482015260640161016c565b6000878152600f6020908152604080832033845282528083208984529091529020805460ff191660011790558415611526576000878152600e60205260409020805460019190889081106114fb576114fb6141c7565b9060005260206000209060090201600401600082825461151b9190614302565b909155506115709050565b6000878152600e602052604090208054600191908890811061154a5761154a6141c7565b9060005260206000209060090201600501600082825461156a9190614302565b90915550505b336000805160206144d58339815191528888886115b657604051806040016040528060118152602001704d494c4553544f4e4520564f5445204e4f60781b8152506115e2565b604051806040016040528060128152602001714d494c4553544f4e4520564f54452059455360701b8152505b426040516115f3949392919061434c565b60405180910390a25060019695505050505050565b600084600a818154811061161e5761161e6141c7565b60009182526020909120600d90910201600101546001600160a01b031633146116895760405162461bcd60e51b815260206004820152601b60248201527f50726f6a656374206f776e6572207265736572766564206f6e6c790000000000604482015260640161016c565b6000868152600d6020526040902054869060ff166116b95760405162461bcd60e51b815260040161016c9061419c565b600a87815481106116cc576116cc6141c7565b60009182526020909120600c600d90920201015460ff166116ff5760405162461bcd60e51b815260040161016c906141dd565b84518651148015611711575083518551145b61176c5760405162461bcd60e51b815260206004820152602660248201527f496e70757420617272617973206d7573742068617665207468652073616d65206044820152650d8cadccee8d60d31b606482015260840161016c565b60008651116117c95760405162461bcd60e51b815260206004820152602360248201527f4d7573742070726f76696465206174206c65617374206f6e65206d696c6573746044820152626f6e6560e81b606482015260840161016c565b6000805b85518110156118ec5760008682815181106117ea576117ea6141c7565b60200260200101511161183f5760405162461bcd60e51b815260206004820181905260248201527f416d6f756e74206d7573742062652067726561746572207468616e207a65726f604482015260640161016c565b6000888281518110611853576118536141c7565b602002602001015151116118795760405162461bcd60e51b815260040161016c9061437c565b600087828151811061188d5761188d6141c7565b602002602001015151116118b35760405162461bcd60e51b815260040161016c906143ab565b8581815181106118c5576118c56141c7565b6020026020010151826118d89190614302565b9150806118e481614331565b9150506117cd565b506000805b60008a8152600e60205260409020548110156119585760008a8152600e60205260409020805482908110611927576119276141c7565b906000526020600020906009020160030154826119449190614302565b91508061195081614331565b9150506118f1565b50600a898154811061196c5761196c6141c7565b90600052602060002090600d020160050154828261198a9190614302565b11156119a85760405162461bcd60e51b815260040161016c906143e2565b60005b8851811015611bb4576000600a8b815481106119c9576119c96141c7565b90600052602060002090600d0201600a015490506119e56137c1565b8181528a518b90849081106119fc576119fc6141c7565b60200260200101518160200181905250898381518110611a1e57611a1e6141c7565b60200260200101518160400181905250888381518110611a4057611a406141c7565b60209081029190910181015160608301524260c0830152600061010083018190528d8152600e8252604081208054600180820183559183529183902084516009909302019182558383015180518594611a9d93850192019061381d565b5060408201518051611ab991600284019160209091019061381d565b50606082015181600301556080820151816004015560a0820151816005015560c0820151816006015560e082015181600701556101008201518160080160006101000a81548160ff02191690836003811115611b1757611b17613a06565b021790555050506001600a8d81548110611b3357611b336141c7565b90600052602060002090600d0201600a016000828254611b539190614302565b90915550506008805460019190600090611b6e908490614302565b909155505060405133906000805160206144d583398151915290611b97908f9086904290614434565b60405180910390a250508080611bac90614331565b9150506119ab565b5060019998505050505050505050565b6000600a8681548110611bd957611bd96141c7565b60009182526020909120600d90910201600101546001600160a01b03163314611c145760405162461bcd60e51b815260040161016c906142bf565b6000855111611c355760405162461bcd60e51b815260040161016c9061437c565b6000845111611c565760405162461bcd60e51b815260040161016c906143ab565b6000835111611ca25760405162461bcd60e51b8152602060048201526018602482015277496d61676555524c2063616e6e6f7420626520656d70747960401b604482015260640161016c565b84600a8781548110611cb657611cb66141c7565b90600052602060002090600d02016002019080519060200190611cda92919061381d565b5083600a8781548110611cef57611cef6141c7565b90600052602060002090600d02016003019080519060200190611d1392919061381d565b5082600a8781548110611d2857611d286141c7565b90600052602060002090600d02016004019080519060200190611d4c92919061381d565b5081600a8781548110611d6157611d616141c7565b90600052602060002090600d020160080181905550336001600160a01b03166000805160206144b58339815191528742604051611dcf929190918252606060208301819052600f908301526e141493d29150d50815541110551151608a1b6080830152604082015260a00190565b60405180910390a250600195945050505050565b6000611ded61341b565b60003411611e3d5760405162461bcd60e51b815260206004820152601f60248201527f4574686572206d7573742062652067726561746572207468616e207a65726f00604482015260640161016c565b6000828152600d602052604090205460ff16611e6b5760405162461bcd60e51b815260040161016c9061419c565b6000600a8381548110611e8057611e806141c7565b90600052602060002090600d0201600c0160019054906101000a900460ff166004811115611eb057611eb0613a06565b14611ef85760405162461bcd60e51b8152602060048201526018602482015277141c9bda9958dd081b9bc81b1bdb99d95c881bdc195b995960421b604482015260640161016c565b600160056001016000828254611f0e9190614302565b909155505060078054349190600090611f28908490614302565b9250508190555034600a8381548110611f4357611f436141c7565b90600052602060002090600d02016006016000828254611f639190614302565b925050819055506001600a8381548110611f7f57611f7f6141c7565b90600052602060002090600d02016009016000828254611f9f9190614302565b90915550506000828152600c6020908152604080832081516080808201845233808352348387019081524284870181815260608087018b8152885460018082018b55998d529b8b902097516004909c0290970180546001600160a01b0319166001600160a01b03909c169b909b178b559251968a01969096559451600289015592516003909701805460ff1916971515979097179096558351888152948501829052600e918501919091526d141493d29150d508109050d2d15160921b90840152908201526000805160206144b58339815191529060a00160405180910390a2600a8281548110612092576120926141c7565b90600052602060002090600d020160050154600a83815481106120b7576120b76141c7565b90600052602060002090600d02016006015410612192576001600a83815481106120e3576120e36141c7565b60009182526020909120600c600d9092020101805461ff00191661010083600481111561211257612112613a06565b0217905550600a828154811061212a5761212a6141c7565b90600052602060002090600d0201600601546004600082825461214d9190614302565b9091555050600a805483908110612166576121666141c7565b60009182526020909120600c600d90920201015460ff1661218a5761218a82613648565b506001610b6d565b600a82815481106121a5576121a56141c7565b90600052602060002090600d020160080154421061220f576002600a83815481106121d2576121d26141c7565b60009182526020909120600c600d9092020101805461ff00191661010083600481111561220157612201613a06565b021790555061218a82613475565b506001610b776001600055565b600061222661341b565b6002600a838154811061223b5761223b6141c7565b90600052602060002090600d0201600c0160019054906101000a900460ff16600481111561226b5761226b613a06565b14806122b957506003600a8381548110612287576122876141c7565b90600052602060002090600d0201600c0160019054906101000a900460ff1660048111156122b7576122b7613a06565b145b6123145760405162461bcd60e51b815260206004820152602660248201527f50726f6a656374206e6f74206d61726b656420617320726576657274206f722060448201526564656c65746560d01b606482015260840161016c565b6002600a8381548110612329576123296141c7565b60009182526020909120600c600d9092020101805461ff00191661010083600481111561235857612358613a06565b021790555061220f82613475565b6000808751116123885760405162461bcd60e51b815260040161016c9061437c565b60008651116123a95760405162461bcd60e51b815260040161016c906143ab565b60008551116123f55760405162461bcd60e51b8152602060048201526018602482015277496d61676555524c2063616e6e6f7420626520656d70747960401b604482015260640161016c565b6000841161243b5760405162461bcd60e51b8152602060048201526013602482015272436f73742063616e6e6f74206265207a65726f60681b604482015260640161016c565b6124436138a1565b6003548152336020808301918252604083018a8152606084018a90526080840189905260a084018890524260e08501526101008401879052851515610180850152600a805460018101825560009190915284517fc65a7bb8d6351c1cf70c95a316cc6a92839c986682d98bc35f958f4883f9d2a8600d90920291820190815593517fc65a7bb8d6351c1cf70c95a316cc6a92839c986682d98bc35f958f4883f9d2a9820180546001600160a01b0319166001600160a01b0390921691909117905590518051859493612539937fc65a7bb8d6351c1cf70c95a316cc6a92839c986682d98bc35f958f4883f9d2aa0192019061381d565b506060820151805161255591600384019160209091019061381d565b506080820151805161257191600484019160209091019061381d565b5060a0820151600582015560c0820151600682015560e082015160078201556101008083015160088301556101208301516009830155610140830151600a830155610160830151600b830155610180830151600c8301805491151560ff198316811782556101a086015193919261ff001990911661ffff19909116179083600481111561260057612600613a06565b0217905550506003546000908152600d602081815260408084208054600160ff199091168117909155338552600b835281852080548083018255908652948390208751959094029093019384558582015192840180546001600160a01b0319166001600160a01b039094169390931790925590840151805185945061268b926002850192019061381d565b50606082015180516126a791600384019160209091019061381d565b50608082015180516126c391600484019160209091019061381d565b5060a0820151600582015560c0820151600682015560e082015160078201556101008083015160088301556101208301516009830155610140830151600a830155610160830151600b830155610180830151600c8301805491151560ff198316811782556101a086015193919261ff001990911661ffff19909116179083600481111561275257612752613a06565b0217905550505060016005600001600082825461276f9190614302565b90915550506003805433916000805160206144b58339815191529190600061279683614331565b9091555060408051918252606060208301819052600f908301526e141493d29150d50810d49150551151608a1b6080830152429082015260a00160405180910390a2506001979650505050505050565b600084600a81815481106127fc576127fc6141c7565b60009182526020909120600d90910201600101546001600160a01b031633146128675760405162461bcd60e51b815260206004820152601b60248201527f50726f6a656374206f776e6572207265736572766564206f6e6c790000000000604482015260640161016c565b6000868152600d6020526040902054869060ff166128975760405162461bcd60e51b815260040161016c9061419c565b600a87815481106128aa576128aa6141c7565b60009182526020909120600c600d90920201015460ff166128dd5760405162461bcd60e51b815260040161016c906141dd565b60008651116128fe5760405162461bcd60e51b815260040161016c9061437c565b600085511161291f5760405162461bcd60e51b815260040161016c906143ab565b6000841161296f5760405162461bcd60e51b815260206004820181905260248201527f416d6f756e74206d7573742062652067726561746572207468616e207a65726f604482015260640161016c565b6000805b6000898152600e60205260409020548110156129da576000898152600e602052604090208054829081106129a9576129a96141c7565b906000526020600020906009020160030154826129c69190614302565b9150806129d281614331565b915050612973565b50600a88815481106129ee576129ee6141c7565b90600052602060002090600d0201600501548582612a0c9190614302565b1115612a2a5760405162461bcd60e51b815260040161016c906143e2565b6000600a8981548110612a3f57612a3f6141c7565b90600052602060002090600d0201600a01549050612a5b6137c1565b81815260208082018a815260408084018b9052606084018a90524260c0850152600061010085018190528d8152600e84529081208054600180820183559183529184902085516009909302019182559151805185949293612ac19390850192019061381d565b5060408201518051612add91600284019160209091019061381d565b50606082015181600301556080820151816004015560a0820151816005015560c0820151816006015560e082015181600701556101008201518160080160006101000a81548160ff02191690836003811115612b3b57612b3b613a06565b021790555050506001600a8b81548110612b5757612b576141c7565b90600052602060002090600d0201600a016000828254612b779190614302565b90915550506008805460019190600090612b92908490614302565b909155505060405133906000805160206144d583398151915290612bbb908d9086904290614434565b60405180910390a25060019998505050505050505050565b6000612bdd61341b565b6001600a8381548110612bf257612bf26141c7565b90600052602060002090600d0201600c0160019054906101000a900460ff166004811115612c2257612c22613a06565b14612c665760405162461bcd60e51b8152602060048201526014602482015273141c9bda9958dd081b9bdd081054141493d5915160621b604482015260640161016c565b600a8281548110612c7957612c796141c7565b60009182526020909120600d90910201600101546001600160a01b0316331480612cad57506001546001600160a01b031633145b612cc95760405162461bcd60e51b815260040161016c906142bf565b600a8281548110612cdc57612cdc6141c7565b60009182526020909120600c600d90920201015460ff1615612dd657600a8281548110612d0b57612d0b6141c7565b90600052602060002090600d0201600a0154600a8381548110612d3057612d306141c7565b90600052602060002090600d0201600b0154148015612d7357506000600a8381548110612d5f57612d5f6141c7565b90600052602060002090600d0201600a0154115b612dd65760405162461bcd60e51b815260206004820152602e60248201527f416c6c206d696c6573746f6e6573206d75737420626520636f6d706c6574656460448201526d081899599bdc99481c185e5bdd5d60921b606482015260840161016c565b61220f82613648565b6060600c6000838152602001908152602001600020805480602002602001604051908101604052809291908181526020016000905b828210156109d7576000848152602090819020604080516080810182526004860290920180546001600160a01b03168352600180820154848601526002820154928401929092526003015460ff16151560608301529083529092019101612e14565b6060600a805480602002602001604051908101604052809291908181526020016000905b8282101561312f576000848152602090819020604080516101c081018252600d86029092018054835260018101546001600160a01b03169383019390935260028301805492939291840191612eee90614284565b80601f0160208091040260200160405190810160405280929190818152602001828054612f1a90614284565b8015612f675780601f10612f3c57610100808354040283529160200191612f67565b820191906000526020600020905b815481529060010190602001808311612f4a57829003601f168201915b50505050508152602001600382018054612f8090614284565b80601f0160208091040260200160405190810160405280929190818152602001828054612fac90614284565b8015612ff95780601f10612fce57610100808354040283529160200191612ff9565b820191906000526020600020905b815481529060010190602001808311612fdc57829003601f168201915b5050505050815260200160048201805461301290614284565b80601f016020809104026020016040519081016040528092919081815260200182805461303e90614284565b801561308b5780601f106130605761010080835404028352916020019161308b565b820191906000526020600020905b81548152906001019060200180831161306e57829003601f168201915b505050918352505060058201546020820152600682015460408201526007820154606082015260088201546080820152600982015460a0820152600a82015460c0820152600b82015460e0820152600c82015460ff8082161515610100808501919091526101209093019290910416600481111561310b5761310b613a06565b600481111561311c5761311c613a06565b8152505081526020019060010190612e9a565b50505050905090565b6131406138a1565b6000828152600d602052604090205460ff1661316e5760405162461bcd60e51b815260040161016c9061419c565b600a8281548110613181576131816141c7565b90600052602060002090600d0201604051806101c0016040529081600082015481526020016001820160009054906101000a90046001600160a01b03166001600160a01b03166001600160a01b031681526020016002820180546131e490614284565b80601f016020809104026020016040519081016040528092919081815260200182805461321090614284565b801561325d5780601f106132325761010080835404028352916020019161325d565b820191906000526020600020905b81548152906001019060200180831161324057829003601f168201915b5050505050815260200160038201805461327690614284565b80601f01602080910402602001604051908101604052809291908181526020018280546132a290614284565b80156132ef5780601f106132c4576101008083540402835291602001916132ef565b820191906000526020600020905b8154815290600101906020018083116132d257829003601f168201915b5050505050815260200160048201805461330890614284565b80601f016020809104026020016040519081016040528092919081815260200182805461333490614284565b80156133815780601f1061335657610100808354040283529160200191613381565b820191906000526020600020905b81548152906001019060200180831161336457829003601f168201915b505050918352505060058201546020820152600682015460408201526007820154606082015260088201546080820152600982015460a0820152600a82015460c0820152600b82015460e0820152600c82015460ff8082161515610100808501919091526101209093019290910416600481111561340157613401613a06565b600481111561341257613412613a06565b90525092915050565b6002600054141561346e5760405162461bcd60e51b815260206004820152601f60248201527f5265656e7472616e637947756172643a207265656e7472616e742063616c6c00604482015260640161016c565b6002600055565b60005b6000828152600c60205260409020548110156135df576000828152600c602052604081208054839081106134ae576134ae6141c7565b60009182526020808320600490920290910154858352600c9091526040822080546001600160a01b03909216935090849081106134ed576134ed6141c7565b90600052602060002090600402016001015490506001600c60008681526020019081526020016000208481548110613527576135276141c7565b906000526020600020906004020160030160006101000a81548160ff02191690831515021790555042600c60008681526020019081526020016000208481548110613574576135746141c7565b90600052602060002090600402016002018190555061359382826135e3565b6001600560010160008282546135a9919061431a565b9091555050600780548291906000906135c390849061431a565b92505081905550505080806135d790614331565b915050613478565b5050565b6000826001600160a01b03168260405160006040518083038185875af1925050503d8060008114613630576040519150601f19603f3d011682016040523d82523d6000602084013e613635565b606091505b505090508061364357600080fd5b505050565b6000600a828154811061365d5761365d6141c7565b90600052602060002090600d020160060154905060006064600254836136839190614473565b61368d9190614492565b90506004600a84815481106136a4576136a46141c7565b60009182526020909120600c600d9092020101805461ff0019166101008360048111156136d3576136d3613a06565b021790555061371a600a84815481106136ee576136ee6141c7565b600091825260209091206001600d9092020101546001600160a01b0316613715838561431a565b6135e3565b600154613730906001600160a01b0316826135e3565b600a8381548110613743576137436141c7565b90600052602060002090600d02016006015460046000828254613766919061431a565b9091555050604080518481526060602082018190526010908201526f141493d29150d508141052510813d55560821b60808201524281830152905133916000805160206144b5833981519152919081900360a00190a2505050565b60405180610120016040528060008152602001606081526020016060815260200160008152602001600081526020016000815260200160008152602001600081526020016000600381111561381857613818613a06565b905290565b82805461382990614284565b90600052602060002090601f01602090048101928261384b5760008555613891565b82601f1061386457805160ff1916838001178555613891565b82800160010185558215613891579182015b82811115613891578251825591602001919060010190613876565b5061389d929150613926565b5090565b604051806101c001604052806000815260200160006001600160a01b03168152602001606081526020016060815260200160608152602001600081526020016000815260200160008152602001600081526020016000815260200160008152602001600081526020016000151581526020016000600481111561381857613818613a06565b5b8082111561389d5760008155600101613927565b60208082526023908201527f557365206261636b50726f6a65637420746f2066756e64207468652070726f6a6040820152621958dd60ea1b606082015260800190565b6000806040838503121561399157600080fd5b50508035926020909101359150565b6000602082840312156139b257600080fd5b5035919050565b6000815180845260005b818110156139df576020818501810151868301820152016139c3565b818111156139f1576000602083870101525b50601f01601f19169290920160200192915050565b634e487b7160e01b600052602160045260246000fd5b60048110613a2c57613a2c613a06565b9052565b6000610120825184526020830151816020860152613a50828601826139b9565b91505060408301518482036040860152613a6a82826139b9565b915050606083015160608501526080830151608085015260a083015160a085015260c083015160c085015260e083015160e085015261010080840151613ab282870182613a1c565b5090949350505050565b6000602080830181845280855180835260408601915060408160051b870101925083870160005b82811015613b1157603f19888603018452613aff858351613a30565b94509285019290850190600101613ae3565b5092979650505050505050565b600080600060608486031215613b3357600080fd5b8335925060208401356001600160a01b0381168114613b5157600080fd5b929592945050506040919091013590565b602081526000613b756020830184613a30565b9392505050565b80358015158114610b7757600080fd5b600080600060608486031215613ba157600080fd5b8335925060208401359150613bb860408501613b7c565b90509250925092565b634e487b7160e01b600052604160045260246000fd5b604051601f8201601f1916810167ffffffffffffffff81118282101715613c0057613c00613bc1565b604052919050565b600067ffffffffffffffff821115613c2257613c22613bc1565b5060051b60200190565b600082601f830112613c3d57600080fd5b813567ffffffffffffffff811115613c5757613c57613bc1565b613c6a601f8201601f1916602001613bd7565b818152846020838601011115613c7f57600080fd5b816020850160208301376000918101602001919091529392505050565b600082601f830112613cad57600080fd5b81356020613cc2613cbd83613c08565b613bd7565b82815260059290921b84018101918181019086841115613ce157600080fd5b8286015b84811015613d2157803567ffffffffffffffff811115613d055760008081fd5b613d138986838b0101613c2c565b845250918301918301613ce5565b509695505050505050565b60008060008060808587031215613d4257600080fd5b8435935060208086013567ffffffffffffffff80821115613d6257600080fd5b613d6e89838a01613c9c565b95506040880135915080821115613d8457600080fd5b613d9089838a01613c9c565b94506060880135915080821115613da657600080fd5b508601601f81018813613db857600080fd5b8035613dc6613cbd82613c08565b81815260059190911b8201830190838101908a831115613de557600080fd5b928401925b82841015613e0357833582529284019290840190613dea565b979a9699509497505050505050565b600080600080600060a08688031215613e2a57600080fd5b85359450602086013567ffffffffffffffff80821115613e4957600080fd5b613e5589838a01613c2c565b95506040880135915080821115613e6b57600080fd5b613e7789838a01613c2c565b94506060880135915080821115613e8d57600080fd5b50613e9a88828901613c2c565b95989497509295608001359392505050565b60008060008060008060c08789031215613ec557600080fd5b863567ffffffffffffffff80821115613edd57600080fd5b613ee98a838b01613c2c565b97506020890135915080821115613eff57600080fd5b613f0b8a838b01613c2c565b96506040890135915080821115613f2157600080fd5b50613f2e89828a01613c2c565b9450506060870135925060808701359150613f4b60a08801613b7c565b90509295509295509295565b60008060008060808587031215613f6d57600080fd5b84359350602085013567ffffffffffffffff80821115613f8c57600080fd5b613f9888838901613c2c565b94506040870135915080821115613fae57600080fd5b50613fbb87828801613c2c565b949793965093946060013593505050565b602080825282518282018190526000919060409081850190868401855b8281101561402e57815180516001600160a01b031685528681015187860152858101518686015260609081015115159085015260809093019290850190600101613fe9565b5091979650505050505050565b60058110613a2c57613a2c613a06565b60006101c082518452602083015161406e60208601826001600160a01b03169052565b506040830151816040860152614086828601826139b9565b915050606083015184820360608601526140a082826139b9565b915050608083015184820360808601526140ba82826139b9565b91505060a083015160a085015260c083015160c085015260e083015160e08501526101008084015181860152506101208084015181860152506101408084015181860152506101608084015181860152506101808084015161411f8287018215159052565b50506101a080840151613ab28287018261403b565b6000602080830181845280855180835260408601915060408160051b870101925083870160005b82811015613b1157603f1988860301845261417785835161404b565b9450928501929085019060010161415b565b602081526000613b75602083018461404b565b602080825260119082015270141c9bda9958dd081b9bdd08199bdd5b99607a1b604082015260600190565b634e487b7160e01b600052603260045260246000fd5b60208082526023908201527f50726f6a65637420646f6573206e6f7420737570706f7274206d696c6573746f6040820152626e657360e81b606082015260800190565b602080825260139082015272135a5b195cdd1bdb99481b9bdd08199bdd5b99606a1b604082015260600190565b6020808252601e908201527f4d696c6573746f6e65206e6f7420696e2070656e64696e672073746174650000604082015260600190565b600181811c9082168061429857607f821691505b602082108114156142b957634e487b7160e01b600052602260045260246000fd5b50919050565b602080825260139082015272556e617574686f72697a656420456e7469747960681b604082015260600190565b634e487b7160e01b600052601160045260246000fd5b60008219821115614315576143156142ec565b500190565b60008282101561432c5761432c6142ec565b500390565b6000600019821415614345576143456142ec565b5060010190565b84815283602082015260806040820152600061436b60808301856139b9565b905082606083015295945050505050565b6020808252601590820152745469746c652063616e6e6f7420626520656d70747960581b604082015260600190565b6020808252601b908201527f4465736372697074696f6e2063616e6e6f7420626520656d7074790000000000604082015260600190565b60208082526032908201527f546f74616c206d696c6573746f6e6520616d6f756e74732063616e6e6f7420656040820152711e18d95959081c1c9bda9958dd0818dbdcdd60721b606082015260800190565b9283526020830191909152608060408301819052601190830152701352531154d513d3914810d49150551151607a1b60a0830152606082015260c00190565b600081600019048311821515161561448d5761448d6142ec565b500290565b6000826144af57634e487b7160e01b600052601260045260246000fd5b50049056feaee8e5d3bbb2f71a951b5632cee20f7ac487b9f8ab4f66a236f7694b13af7c6a5746ae9f9762fec838e38d732cc4701005769d27ea24780ed3eac3dcbd2449aea2646970667358221220edf3293dcacdf9a4480a09ac76fcd1591c48c6bfb05c971bbcf2e9dddf4d329664736f6c634300080b0033",
  "linkReferences": {},
  "deployedLinkReferences": {}
}