{
  "_format": "hh-sol-artifact-1",
  "contractName": "CrowdChain",
  "sourceName": "src/contracts/CrowdChain.sol",
  "abi": [
    {
      "inputs": [
        {
          "internalType": "uint256",
          "name": "_projectTax",
          "type": "uint256"
        }
      ],
      "stateMutability": "nonpayable",
      "type": "constructor"
    },
    {
      "anonymous": false,
      "inputs": [
        {
          "indexed": false,
          "internalType": "uint256",
          "name": "id",
          "type": "uint256"
        },
        {
          "indexed": false,
          "internalType": "string",
          "name": "actionType",
          "type": "string"
        },
        {
          "indexed": true,
          "internalType": "address",
          "name": "executor",
          "type": "address"
        },
        {
          "indexed": false,
          "internalType": "uint256",
          "name": "timestamp",
          "type": "uint256"
        }
      ],
      "name": "Action",
      "type": "event"
    },
    {
      "anonymous": false,
      "inputs": [
        {
          "indexed": false,
          "internalType": "uint256",
          "name": "projectId",
          "type": "uint256"
        },
        {
          "indexed": false,
          "internalType": "uint256",
          "name": "milestoneId",
          "type": "uint256"
        },
        {
          "indexed": false,
          "internalType": "string",
          "name": "actionType",
          "type": "string"
        },
        {
          "indexed": true,
          "internalType": "address",
          "name": "executor",
          "type": "address"
        },
        {
          "indexed": false,
          "internalType": "uint256",
          "name": "timestamp",
          "type": "uint256"
        }
      ],
      "name": "MilestoneAction",
      "type": "event"
    },
    {
      "stateMutability": "payable",
      "type": "fallback"
    },
    {
      "inputs": [
        {
          "internalType": "uint256",
          "name": "id",
          "type": "uint256"
        }
      ],
      "name": "backProject",
      "outputs": [
        {
          "internalType": "bool",
          "name": "",
          "type": "bool"
        }
      ],
      "stateMutability": "payable",
      "type": "function"
    },
    {
      "inputs": [],
      "name": "balance",
      "outputs": [
        {
          "internalType": "uint256",
          "name": "",
          "type": "uint256"
        }
      ],
      "stateMutability": "view",
      "type": "function"
    },
    {
      "inputs": [
        {
          "internalType": "uint256",
          "name": "_taxPct",
          "type": "uint256"
        }
      ],
      "name": "changeTax",
      "outputs": [],
      "stateMutability": "nonpayable",
      "type": "function"
    },
    {
      "inputs": [
        {
          "internalType": "uint256",
          "name": "projectId",
          "type": "uint256"
        },
        {
          "internalType": "string",
          "name": "title",
          "type": "string"
        },
        {
          "internalType": "string",
          "name": "description",
          "type": "string"
        },
        {
          "internalType": "uint256",
          "name": "amount",
          "type": "uint256"
        }
      ],
      "name": "createMilestone",
      "outputs": [
        {
          "internalType": "bool",
          "name": "",
          "type": "bool"
        }
      ],
      "stateMutability": "nonpayable",
      "type": "function"
    },
    {
      "inputs": [
        {
          "internalType": "string",
          "name": "title",
          "type": "string"
        },
        {
          "internalType": "string",
          "name": "description",
          "type": "string"
        },
        {
          "internalType": "string",
          "name": "imageURL",
          "type": "string"
        },
        {
          "internalType": "uint256",
          "name": "cost",
          "type": "uint256"
        },
        {
          "internalType": "uint256",
          "name": "expiresAt",
          "type": "uint256"
        },
        {
          "internalType": "bool",
          "name": "_hasMilestones",
          "type": "bool"
        }
      ],
      "name": "createProject",
      "outputs": [
        {
          "internalType": "bool",
          "name": "",
          "type": "bool"
        }
      ],
      "stateMutability": "nonpayable",
      "type": "function"
    },
    {
      "inputs": [
        {
          "internalType": "uint256",
          "name": "id",
          "type": "uint256"
        }
      ],
      "name": "deleteProject",
      "outputs": [
        {
          "internalType": "bool",
          "name": "",
          "type": "bool"
        }
      ],
      "stateMutability": "nonpayable",
      "type": "function"
    },
    {
      "inputs": [
        {
          "internalType": "uint256",
          "name": "projectId",
          "type": "uint256"
        },
        {
          "internalType": "uint256",
          "name": "milestoneId",
          "type": "uint256"
        }
      ],
      "name": "executeMilestone",
      "outputs": [
        {
          "internalType": "bool",
          "name": "",
          "type": "bool"
        }
      ],
      "stateMutability": "nonpayable",
      "type": "function"
    },
    {
      "inputs": [
        {
          "internalType": "uint256",
          "name": "id",
          "type": "uint256"
        }
      ],
      "name": "getBackers",
      "outputs": [
        {
          "components": [
            {
              "internalType": "address",
              "name": "owner",
              "type": "address"
            },
            {
              "internalType": "uint256",
              "name": "contribution",
              "type": "uint256"
            },
            {
              "internalType": "uint256",
              "name": "timestamp",
              "type": "uint256"
            },
            {
              "internalType": "bool",
              "name": "refunded",
              "type": "bool"
            }
          ],
          "internalType": "struct CrowdChain.backerStruct[]",
          "name": "",
          "type": "tuple[]"
        }
      ],
      "stateMutability": "view",
      "type": "function"
    },
    {
      "inputs": [
        {
          "internalType": "uint256",
          "name": "projectId",
          "type": "uint256"
        },
        {
          "internalType": "uint256",
          "name": "milestoneId",
          "type": "uint256"
        }
      ],
      "name": "getMilestone",
      "outputs": [
        {
          "components": [
            {
              "internalType": "uint256",
              "name": "id",
              "type": "uint256"
            },
            {
              "internalType": "string",
              "name": "title",
              "type": "string"
            },
            {
              "internalType": "string",
              "name": "description",
              "type": "string"
            },
            {
              "internalType": "uint256",
              "name": "amount",
              "type": "uint256"
            },
            {
              "internalType": "uint256",
              "name": "yesVotes",
              "type": "uint256"
            },
            {
              "internalType": "uint256",
              "name": "noVotes",
              "type": "uint256"
            },
            {
              "internalType": "uint256",
              "name": "createdAt",
              "type": "uint256"
            },
            {
              "internalType": "uint256",
              "name": "completedAt",
              "type": "uint256"
            },
            {
              "internalType": "enum CrowdChain.milestoneStatusEnum",
              "name": "status",
              "type": "uint8"
            }
          ],
          "internalType": "struct CrowdChain.milestoneStruct",
          "name": "",
          "type": "tuple"
        }
      ],
      "stateMutability": "view",
      "type": "function"
    },
    {
      "inputs": [
        {
          "internalType": "uint256",
          "name": "projectId",
          "type": "uint256"
        }
      ],
      "name": "getMilestones",
      "outputs": [
        {
          "components": [
            {
              "internalType": "uint256",
              "name": "id",
              "type": "uint256"
            },
            {
              "internalType": "string",
              "name": "title",
              "type": "string"
            },
            {
              "internalType": "string",
              "name": "description",
              "type": "string"
            },
            {
              "internalType": "uint256",
              "name": "amount",
              "type": "uint256"
            },
            {
              "internalType": "uint256",
              "name": "yesVotes",
              "type": "uint256"
            },
            {
              "internalType": "uint256",
              "name": "noVotes",
              "type": "uint256"
            },
            {
              "internalType": "uint256",
              "name": "createdAt",
              "type": "uint256"
            },
            {
              "internalType": "uint256",
              "name": "completedAt",
              "type": "uint256"
            },
            {
              "internalType": "enum CrowdChain.milestoneStatusEnum",
              "name": "status",
              "type": "uint8"
            }
          ],
          "internalType": "struct CrowdChain.milestoneStruct[]",
          "name": "",
          "type": "tuple[]"
        }
      ],
      "stateMutability": "view",
      "type": "function"
    },
    {
      "inputs": [
        {
          "internalType": "uint256",
          "name": "id",
          "type": "uint256"
        }
      ],
      "name": "getProject",
      "outputs": [
        {
          "components": [
            {
              "internalType": "uint256",
              "name": "id",
              "type": "uint256"
            },
            {
              "internalType": "address",
              "name": "owner",
              "type": "address"
            },
            {
              "internalType": "string",
              "name": "title",
              "type": "string"
            },
            {
              "internalType": "string",
              "name": "description",
              "type": "string"
            },
            {
              "internalType": "string",
              "name": "imageURL",
              "type": "string"
            },
            {
              "internalType": "uint256",
              "name": "cost",
              "type": "uint256"
            },
            {
              "internalType": "uint256",
              "name": "raised",
              "type": "uint256"
            },
            {
              "internalType": "uint256",
              "name": "timestamp",
              "type": "uint256"
            },
            {
              "internalType": "uint256",
              "name": "expiresAt",
              "type": "uint256"
            },
            {
              "internalType": "uint256",
              "name": "backers",
              "type": "uint256"
            },
            {
              "internalType": "uint256",
              "name": "milestoneCount",
              "type": "uint256"
            },
            {
              "internalType": "uint256",
              "name": "milestonesCompleted",
              "type": "uint256"
            },
            {
              "internalType": "bool",
              "name": "hasMilestones",
              "type": "bool"
            },
            {
              "internalType": "enum CrowdChain.statusEnum",
              "name": "status",
              "type": "uint8"
            }
          ],
          "internalType": "struct CrowdChain.projectStruct",
          "name": "",
          "type": "tuple"
        }
      ],
      "stateMutability": "view",
      "type": "function"
    },
    {
      "inputs": [],
      "name": "getProjects",
      "outputs": [
        {
          "components": [
            {
              "internalType": "uint256",
              "name": "id",
              "type": "uint256"
            },
            {
              "internalType": "address",
              "name": "owner",
              "type": "address"
            },
            {
              "internalType": "string",
              "name": "title",
              "type": "string"
            },
            {
              "internalType": "string",
              "name": "description",
              "type": "string"
            },
            {
              "internalType": "string",
              "name": "imageURL",
              "type": "string"
            },
            {
              "internalType": "uint256",
              "name": "cost",
              "type": "uint256"
            },
            {
              "internalType": "uint256",
              "name": "raised",
              "type": "uint256"
            },
            {
              "internalType": "uint256",
              "name": "timestamp",
              "type": "uint256"
            },
            {
              "internalType": "uint256",
              "name": "expiresAt",
              "type": "uint256"
            },
            {
              "internalType": "uint256",
              "name": "backers",
              "type": "uint256"
            },
            {
              "internalType": "uint256",
              "name": "milestoneCount",
              "type": "uint256"
            },
            {
              "internalType": "uint256",
              "name": "milestonesCompleted",
              "type": "uint256"
            },
            {
              "internalType": "bool",
              "name": "hasMilestones",
              "type": "bool"
            },
            {
              "internalType": "enum CrowdChain.statusEnum",
              "name": "status",
              "type": "uint8"
            }
          ],
          "internalType": "struct CrowdChain.projectStruct[]",
          "name": "",
          "type": "tuple[]"
        }
      ],
      "stateMutability": "view",
      "type": "function"
    },
    {
      "inputs": [
        {
          "internalType": "uint256",
          "name": "",
          "type": "uint256"
        },
        {
          "internalType": "address",
          "name": "",
          "type": "address"
        },
        {
          "internalType": "uint256",
          "name": "",
          "type": "uint256"
        }
      ],
      "name": "milestoneVoted",
      "outputs": [
        {
          "internalType": "bool",
          "name": "",
          "type": "bool"
        }
      ],
      "stateMutability": "view",
      "type": "function"
    },
    {
      "inputs": [],
      "name": "owner",
      "outputs": [
        {
          "internalType": "address",
          "name": "",
          "type": "address"
        }
      ],
      "stateMutability": "view",
      "type": "function"
    },
    {
      "inputs": [
        {
          "internalType": "uint256",
          "name": "id",
          "type": "uint256"
        }
      ],
      "name": "payOutProject",
      "outputs": [
        {
          "internalType": "bool",
          "name": "",
          "type": "bool"
        }
      ],
      "stateMutability": "nonpayable",
      "type": "function"
    },
    {
      "inputs": [],
      "name": "projectCount",
      "outputs": [
        {
          "internalType": "uint256",
          "name": "",
          "type": "uint256"
        }
      ],
      "stateMutability": "view",
      "type": "function"
    },
    {
      "inputs": [
        {
          "internalType": "uint256",
          "name": "",
          "type": "uint256"
        }
      ],
      "name": "projectExist",
      "outputs": [
        {
          "internalType": "bool",
          "name": "",
          "type": "bool"
        }
      ],
      "stateMutability": "view",
      "type": "function"
    },
    {
      "inputs": [],
      "name": "projectTax",
      "outputs": [
        {
          "internalType": "uint256",
          "name": "",
          "type": "uint256"
        }
      ],
      "stateMutability": "view",
      "type": "function"
    },
    {
      "inputs": [
        {
          "internalType": "uint256",
          "name": "projectId",
          "type": "uint256"
        },
        {
          "internalType": "uint256",
          "name": "milestoneId",
          "type": "uint256"
        }
      ],
      "name": "rejectMilestone",
      "outputs": [
        {
          "internalType": "bool",
          "name": "",
          "type": "bool"
        }
      ],
      "stateMutability": "nonpayable",
      "type": "function"
    },
    {
      "inputs": [
        {
          "internalType": "uint256",
          "name": "id",
          "type": "uint256"
        }
      ],
      "name": "requestRefund",
      "outputs": [
        {
          "internalType": "bool",
          "name": "",
          "type": "bool"
        }
      ],
      "stateMutability": "nonpayable",
      "type": "function"
    },
    {
      "inputs": [],
      "name": "stats",
      "outputs": [
        {
          "internalType": "uint256",
          "name": "totalProjects",
          "type": "uint256"
        },
        {
          "internalType": "uint256",
          "name": "totalBacking",
          "type": "uint256"
        },
        {
          "internalType": "uint256",
          "name": "totalDonations",
          "type": "uint256"
        },
        {
          "internalType": "uint256",
          "name": "totalMilestones",
          "type": "uint256"
        },
        {
          "internalType": "uint256",
          "name": "totalMilestonesCompleted",
          "type": "uint256"
        }
      ],
      "stateMutability": "view",
      "type": "function"
    },
    {
      "inputs": [
        {
          "internalType": "uint256",
          "name": "id",
          "type": "uint256"
        },
        {
          "internalType": "string",
          "name": "title",
          "type": "string"
        },
        {
          "internalType": "string",
          "name": "description",
          "type": "string"
        },
        {
          "internalType": "string",
          "name": "imageURL",
          "type": "string"
        },
        {
          "internalType": "uint256",
          "name": "expiresAt",
          "type": "uint256"
        }
      ],
      "name": "updateProject",
      "outputs": [
        {
          "internalType": "bool",
          "name": "",
          "type": "bool"
        }
      ],
      "stateMutability": "nonpayable",
      "type": "function"
    },
    {
      "inputs": [
        {
          "internalType": "uint256",
          "name": "projectId",
          "type": "uint256"
        },
        {
          "internalType": "uint256",
          "name": "milestoneId",
          "type": "uint256"
        },
        {
          "internalType": "bool",
          "name": "approve",
          "type": "bool"
        }
      ],
      "name": "voteMilestone",
      "outputs": [
        {
          "internalType": "bool",
          "name": "",
          "type": "bool"
        }
      ],
      "stateMutability": "nonpayable",
      "type": "function"
    },
    {
      "stateMutability": "payable",
      "type": "receive"
    }
  ],
  "bytecode": "0x60806040523480156200001157600080fd5b5060405162003dfa38038062003dfa833981016040819052620000349162000054565b6001600081905580546001600160a01b031916331790556002556200006e565b6000602082840312156200006757600080fd5b5051919050565b613d7c806200007e6000396000f3fe6080604052600436106101445760003560e01c80639a3fa8c7116100b6578063b69ef8a81161006f578063b69ef8a814610413578063c9168b7214610429578063d24cd3ec14610456578063d80528ae1461046c578063dcc60128146104bb578063f0f3f2c8146104dd5761016a565b80639a3fa8c7146103605780639f39a19414610380578063a4b2409e14610393578063a5ff7b83146103b3578063b317323f146103d3578063b531dcba146103f35761016a565b80636673dbf2116101085780636673dbf21461024a578063691a465c1461028b5780638593054b146102ab5780638da5cb5b146102db5780638ed9895c14610313578063918cb241146103405761016a565b806336fbad26146101825780633abe6bd7146101ab5780633e45c8af146101db57806342c549c0146101fd5780634cd0cb281461022a5761016a565b3661016a5760405162461bcd60e51b8152600401610161906133cc565b60405180910390fd5b60405162461bcd60e51b8152600401610161906133cc565b34801561018e57600080fd5b5061019860035481565b6040519081526020015b60405180910390f35b3480156101b757600080fd5b506101cb6101c636600461340f565b61050a565b60405190151581526020016101a2565b3480156101e757600080fd5b506101fb6101f6366004613431565b610737565b005b34801561020957600080fd5b5061021d610218366004613431565b61078c565b6040516101a2919061354d565b34801561023657600080fd5b506101cb610245366004613431565b6109b7565b34801561025657600080fd5b506101cb6102653660046135af565b600f60209081526000938452604080852082529284528284209052825290205460ff1681565b34801561029757600080fd5b506101cb6102a636600461340f565b610b51565b3480156102b757600080fd5b506101cb6102c6366004613431565b600d6020526000908152604090205460ff1681565b3480156102e757600080fd5b506001546102fb906001600160a01b031681565b6040516001600160a01b0390911681526020016101a2565b34801561031f57600080fd5b5061033361032e36600461340f565b610fc6565b6040516101a291906135f3565b34801561034c57600080fd5b506101cb61035b36600461361d565b611212565b34801561036c57600080fd5b506101cb61037b3660046136f5565b6115dd565b6101cb61038e366004613431565b6117fc565b34801561039f57600080fd5b506101cb6103ae366004613431565b611c35565b3480156103bf57600080fd5b506101cb6103ce36600461378f565b611d7f565b3480156103df57600080fd5b506101cb6103ee36600461383a565b6121ff565b3480156103ff57600080fd5b506101cb61040e366004613431565b612664565b34801561041f57600080fd5b5061019860045481565b34801561043557600080fd5b50610449610444366004613431565b612870565b6040516101a291906138af565b34801561046257600080fd5b5061019860025481565b34801561047857600080fd5b50600554600654600754600854600954610493949392919085565b604080519586526020860194909452928401919091526060830152608082015260a0016101a2565b3480156104c757600080fd5b506104d0612907565b6040516101a29190613a17565b3480156104e957600080fd5b506104fd6104f8366004613431565b612bc9565b6040516101a29190613a6c565b6001546000906001600160a01b0316331461055d5760405162461bcd60e51b81526020600482015260136024820152724f776e6572207265736572766564206f6e6c7960681b6044820152606401610161565b6000838152600d6020526040902054839060ff1661058d5760405162461bcd60e51b815260040161016190613a7f565b600a84815481106105a0576105a0613aaa565b60009182526020909120600c600d90920201015460ff166105d35760405162461bcd60e51b815260040161016190613ac0565b600a84815481106105e6576105e6613aaa565b90600052602060002090600d0201600a015483106106165760405162461bcd60e51b815260040161016190613b03565b6000848152600e6020526040812080548590811061063657610636613aaa565b600091825260209091206008600990920201015460ff16600381111561065e5761065e613497565b1461067b5760405162461bcd60e51b815260040161016190613b30565b6000848152600e602052604090208054600291908590811061069f5761069f613aaa565b60009182526020909120600860099092020101805460ff191660018360038111156106cc576106cc613497565b021790555060408051858152602081018590526080818301819052601290820152711352531154d513d391481491529150d5115160721b60a082015242606082015290513391600080516020613d27833981519152919081900360c00190a2600191505b5092915050565b6001546001600160a01b031633146107875760405162461bcd60e51b81526020600482015260136024820152724f776e6572207265736572766564206f6e6c7960681b6044820152606401610161565b600255565b6000818152600d602052604090205460609060ff166107bd5760405162461bcd60e51b815260040161016190613a7f565b6000828152600e6020908152604080832080548251818502810185019093528083529193909284015b828210156109ac5783829060005260206000209060090201604051806101200160405290816000820154815260200160018201805461082490613b67565b80601f016020809104026020016040519081016040528092919081815260200182805461085090613b67565b801561089d5780601f106108725761010080835404028352916020019161089d565b820191906000526020600020905b81548152906001019060200180831161088057829003601f168201915b505050505081526020016002820180546108b690613b67565b80601f01602080910402602001604051908101604052809291908181526020018280546108e290613b67565b801561092f5780601f106109045761010080835404028352916020019161092f565b820191906000526020600020905b81548152906001019060200180831161091257829003601f168201915b50505091835250506003828101546020830152600483015460408301526005830154606083015260068301546080830152600783015460a0830152600883015460c09092019160ff169081111561098857610988613497565b600381111561099957610999613497565b81525050815260200190600101906107e6565b505050509050919050565b60006109c1612eac565b6000600a83815481106109d6576109d6613aaa565b90600052602060002090600d0201600c0160019054906101000a900460ff166004811115610a0657610a06613497565b14610a4e5760405162461bcd60e51b8152602060048201526018602482015277141c9bda9958dd081b9bc81b1bdb99d95c881bdc195b995960421b6044820152606401610161565b600a8281548110610a6157610a61613aaa565b60009182526020909120600d90910201600101546001600160a01b03163314610a9c5760405162461bcd60e51b815260040161016190613ba2565b6003600a8381548110610ab157610ab1613aaa565b60009182526020909120600c600d9092020101805461ff001916610100836004811115610ae057610ae0613497565b0217905550610aee82612f06565b60408051838152606060208201819052600f908201526e141493d29150d50811115311551151608a1b6080820152428183015290513391600080516020613d07833981519152919081900360a00190a25060015b610b4c6001600055565b919050565b6000828152600d6020526040812054839060ff16610b815760405162461bcd60e51b815260040161016190613a7f565b610b89612eac565b600a8481548110610b9c57610b9c613aaa565b60009182526020909120600d90910201600101546001600160a01b0316331480610bd057506001546001600160a01b031633145b610c425760405162461bcd60e51b815260206004820152603a60248201527f4f6e6c792070726f6a656374206f776e6572206f7220636f6e7472616374206f60448201527f776e65722063616e2065786563757465206d696c6573746f6e650000000000006064820152608401610161565b600a8481548110610c5557610c55613aaa565b60009182526020909120600c600d90920201015460ff16610c885760405162461bcd60e51b815260040161016190613ac0565b600a8481548110610c9b57610c9b613aaa565b90600052602060002090600d0201600a01548310610ccb5760405162461bcd60e51b815260040161016190613b03565b6000848152600e60205260408120805485908110610ceb57610ceb613aaa565b600091825260209091206008600990920201015460ff166003811115610d1357610d13613497565b14610d305760405162461bcd60e51b815260040161016190613b30565b6000848152600e60205260409020805484908110610d5057610d50613aaa565b906000526020600020906009020160050154600e60008681526020019081526020016000208481548110610d8657610d86613aaa565b90600052602060002090600902016004015411610df65760405162461bcd60e51b815260206004820152602860248201527f4d696c6573746f6e6520646f6573206e6f74206861766520656e6f7567682079604482015267657320766f74657360c01b6064820152608401610161565b6000848152600e6020526040902080546003919085908110610e1a57610e1a613aaa565b60009182526020909120600860099092020101805460ff19166001836003811115610e4757610e47613497565b02179055506000848152600e60205260409020805442919085908110610e6f57610e6f613aaa565b9060005260206000209060090201600701819055506001600a8581548110610e9957610e99613aaa565b90600052602060002090600d0201600b016000828254610eb99190613be5565b90915550506009805460019190600090610ed4908490613be5565b90915550506000848152600e60205260408120805485908110610ef957610ef9613aaa565b9060005260206000209060090201600301549050610f46600a8681548110610f2357610f23613aaa565b600091825260209091206001600d9092020101546001600160a01b031682613074565b8060046000828254610f589190613bfd565b909155505060408051868152602081018690526080818301819052601290820152711352531154d513d3914811561150d555115160721b60a082015242606082015290513391600080516020613d27833981519152919081900360c00190a260019250506107306001600055565b610fce613252565b6000838152600d602052604090205460ff16610ffc5760405162461bcd60e51b815260040161016190613a7f565b600a838154811061100f5761100f613aaa565b90600052602060002090600d0201600a0154821061103f5760405162461bcd60e51b815260040161016190613b03565b6000838152600e6020526040902080548390811061105f5761105f613aaa565b9060005260206000209060090201604051806101200160405290816000820154815260200160018201805461109390613b67565b80601f01602080910402602001604051908101604052809291908181526020018280546110bf90613b67565b801561110c5780601f106110e15761010080835404028352916020019161110c565b820191906000526020600020905b8154815290600101906020018083116110ef57829003601f168201915b5050505050815260200160028201805461112590613b67565b80601f016020809104026020016040519081016040528092919081815260200182805461115190613b67565b801561119e5780601f106111735761010080835404028352916020019161119e565b820191906000526020600020905b81548152906001019060200180831161118157829003601f168201915b50505091835250506003828101546020830152600483015460408301526005830154606083015260068301546080830152600783015460a0830152600883015460c09092019160ff16908111156111f7576111f7613497565b600381111561120857611208613497565b9052509392505050565b6000838152600d6020526040812054849060ff166112425760405162461bcd60e51b815260040161016190613a7f565b846000805b6000838152600c60205260409020548110156112bb576000838152600c6020526040902080543391908390811061128057611280613aaa565b60009182526020909120600490910201546001600160a01b031614156112a957600191506112bb565b806112b381613c14565b915050611247565b508061131a5760405162461bcd60e51b815260206004820152602860248201527f4f6e6c7920636f6e7472696275746f72732063616e20766f7465206f6e206d696044820152676c6573746f6e657360c01b6064820152608401610161565b600a878154811061132d5761132d613aaa565b60009182526020909120600c600d90920201015460ff166113605760405162461bcd60e51b815260040161016190613ac0565b600a878154811061137357611373613aaa565b90600052602060002090600d0201600a015486106113a35760405162461bcd60e51b815260040161016190613b03565b6000878152600e602052604081208054889081106113c3576113c3613aaa565b600091825260209091206008600990920201015460ff1660038111156113eb576113eb613497565b146114085760405162461bcd60e51b815260040161016190613b30565b6000878152600f60209081526040808320338452825280832089845290915290205460ff161561147a5760405162461bcd60e51b815260206004820152601f60248201527f416c726561647920766f746564206f6e2074686973206d696c6573746f6e65006044820152606401610161565b6000878152600f6020908152604080832033845282528083208984529091529020805460ff1916600117905584156114fb576000878152600e60205260409020805460019190889081106114d0576114d0613aaa565b906000526020600020906009020160040160008282546114f09190613be5565b909155506115459050565b6000878152600e602052604090208054600191908890811061151f5761151f613aaa565b9060005260206000209060090201600501600082825461153f9190613be5565b90915550505b33600080516020613d2783398151915288888861158b57604051806040016040528060118152602001704d494c4553544f4e4520564f5445204e4f60781b8152506115b7565b604051806040016040528060128152602001714d494c4553544f4e4520564f54452059455360701b8152505b426040516115c89493929190613c2f565b60405180910390a25060019695505050505050565b6000600a86815481106115f2576115f2613aaa565b60009182526020909120600d90910201600101546001600160a01b0316331461162d5760405162461bcd60e51b815260040161016190613ba2565b600085511161164e5760405162461bcd60e51b815260040161016190613c5f565b600084511161166f5760405162461bcd60e51b815260040161016190613c8e565b60008351116116bb5760405162461bcd60e51b8152602060048201526018602482015277496d61676555524c2063616e6e6f7420626520656d70747960401b6044820152606401610161565b84600a87815481106116cf576116cf613aaa565b90600052602060002090600d020160020190805190602001906116f39291906132ae565b5083600a878154811061170857611708613aaa565b90600052602060002090600d0201600301908051906020019061172c9291906132ae565b5082600a878154811061174157611741613aaa565b90600052602060002090600d020160040190805190602001906117659291906132ae565b5081600a878154811061177a5761177a613aaa565b90600052602060002090600d020160080181905550336001600160a01b0316600080516020613d0783398151915287426040516117e8929190918252606060208301819052600f908301526e141493d29150d50815541110551151608a1b6080830152604082015260a00190565b60405180910390a250600195945050505050565b6000611806612eac565b600034116118565760405162461bcd60e51b815260206004820152601f60248201527f4574686572206d7573742062652067726561746572207468616e207a65726f006044820152606401610161565b6000828152600d602052604090205460ff166118845760405162461bcd60e51b815260040161016190613a7f565b6000600a838154811061189957611899613aaa565b90600052602060002090600d0201600c0160019054906101000a900460ff1660048111156118c9576118c9613497565b146119115760405162461bcd60e51b8152602060048201526018602482015277141c9bda9958dd081b9bc81b1bdb99d95c881bdc195b995960421b6044820152606401610161565b6001600560010160008282546119279190613be5565b909155505060078054349190600090611941908490613be5565b9250508190555034600a838154811061195c5761195c613aaa565b90600052602060002090600d0201600601600082825461197c9190613be5565b925050819055506001600a838154811061199857611998613aaa565b90600052602060002090600d020160090160008282546119b89190613be5565b90915550506000828152600c6020908152604080832081516080808201845233808352348387019081524284870181815260608087018b8152885460018082018b55998d529b8b902097516004909c0290970180546001600160a01b0319166001600160a01b03909c169b909b178b559251968a01969096559451600289015592516003909701805460ff1916971515979097179096558351888152948501829052600e918501919091526d141493d29150d508109050d2d15160921b9084015290820152600080516020613d078339815191529060a00160405180910390a2600a8281548110611aab57611aab613aaa565b90600052602060002090600d020160050154600a8381548110611ad057611ad0613aaa565b90600052602060002090600d02016006015410611bab576001600a8381548110611afc57611afc613aaa565b60009182526020909120600c600d9092020101805461ff001916610100836004811115611b2b57611b2b613497565b0217905550600a8281548110611b4357611b43613aaa565b90600052602060002090600d02016006015460046000828254611b669190613be5565b9091555050600a805483908110611b7f57611b7f613aaa565b60009182526020909120600c600d90920201015460ff16611ba357611ba3826130d9565b506001610b42565b600a8281548110611bbe57611bbe613aaa565b90600052602060002090600d0201600801544210611c28576002600a8381548110611beb57611beb613aaa565b60009182526020909120600c600d9092020101805461ff001916610100836004811115611c1a57611c1a613497565b0217905550611ba382612f06565b506001610b4c6001600055565b6000611c3f612eac565b6002600a8381548110611c5457611c54613aaa565b90600052602060002090600d0201600c0160019054906101000a900460ff166004811115611c8457611c84613497565b1480611cd257506003600a8381548110611ca057611ca0613aaa565b90600052602060002090600d0201600c0160019054906101000a900460ff166004811115611cd057611cd0613497565b145b611d2d5760405162461bcd60e51b815260206004820152602660248201527f50726f6a656374206e6f74206d61726b656420617320726576657274206f722060448201526564656c65746560d01b6064820152608401610161565b6002600a8381548110611d4257611d42613aaa565b60009182526020909120600c600d9092020101805461ff001916610100836004811115611d7157611d71613497565b0217905550611c2882612f06565b600080875111611da15760405162461bcd60e51b815260040161016190613c5f565b6000865111611dc25760405162461bcd60e51b815260040161016190613c8e565b6000855111611e0e5760405162461bcd60e51b8152602060048201526018602482015277496d61676555524c2063616e6e6f7420626520656d70747960401b6044820152606401610161565b60008411611e545760405162461bcd60e51b8152602060048201526013602482015272436f73742063616e6e6f74206265207a65726f60681b6044820152606401610161565b611e5c613332565b6003548152336020808301918252604083018a8152606084018a90526080840189905260a084018890524260e08501526101008401879052851515610180850152600a805460018101825560009190915284517fc65a7bb8d6351c1cf70c95a316cc6a92839c986682d98bc35f958f4883f9d2a8600d90920291820190815593517fc65a7bb8d6351c1cf70c95a316cc6a92839c986682d98bc35f958f4883f9d2a9820180546001600160a01b0319166001600160a01b0390921691909117905590518051859493611f52937fc65a7bb8d6351c1cf70c95a316cc6a92839c986682d98bc35f958f4883f9d2aa019201906132ae565b5060608201518051611f6e9160038401916020909101906132ae565b5060808201518051611f8a9160048401916020909101906132ae565b5060a0820151600582015560c0820151600682015560e082015160078201556101008083015160088301556101208301516009830155610140830151600a830155610160830151600b830155610180830151600c8301805491151560ff198316811782556101a086015193919261ff001990911661ffff19909116179083600481111561201957612019613497565b0217905550506003546000908152600d602081815260408084208054600160ff199091168117909155338552600b835281852080548083018255908652948390208751959094029093019384558582015192840180546001600160a01b0319166001600160a01b03909416939093179092559084015180518594506120a492600285019201906132ae565b50606082015180516120c09160038401916020909101906132ae565b50608082015180516120dc9160048401916020909101906132ae565b5060a0820151600582015560c0820151600682015560e082015160078201556101008083015160088301556101208301516009830155610140830151600a830155610160830151600b830155610180830151600c8301805491151560ff198316811782556101a086015193919261ff001990911661ffff19909116179083600481111561216b5761216b613497565b021790555050506001600560000160008282546121889190613be5565b9091555050600380543391600080516020613d07833981519152919060006121af83613c14565b9091555060408051918252606060208301819052600f908301526e141493d29150d50810d49150551151608a1b6080830152429082015260a00160405180910390a2506001979650505050505050565b600084600a818154811061221557612215613aaa565b60009182526020909120600d90910201600101546001600160a01b031633146122805760405162461bcd60e51b815260206004820152601b60248201527f50726f6a656374206f776e6572207265736572766564206f6e6c7900000000006044820152606401610161565b6000868152600d6020526040902054869060ff166122b05760405162461bcd60e51b815260040161016190613a7f565b600a87815481106122c3576122c3613aaa565b60009182526020909120600c600d90920201015460ff166122f65760405162461bcd60e51b815260040161016190613ac0565b60008651116123175760405162461bcd60e51b815260040161016190613c5f565b60008551116123385760405162461bcd60e51b815260040161016190613c8e565b600084116123885760405162461bcd60e51b815260206004820181905260248201527f416d6f756e74206d7573742062652067726561746572207468616e207a65726f6044820152606401610161565b6000805b6000898152600e60205260409020548110156123f3576000898152600e602052604090208054829081106123c2576123c2613aaa565b906000526020600020906009020160030154826123df9190613be5565b9150806123eb81613c14565b91505061238c565b50600a888154811061240757612407613aaa565b90600052602060002090600d02016005015485826124259190613be5565b111561248e5760405162461bcd60e51b815260206004820152603260248201527f546f74616c206d696c6573746f6e6520616d6f756e74732063616e6e6f7420656044820152711e18d95959081c1c9bda9958dd0818dbdcdd60721b6064820152608401610161565b6000600a89815481106124a3576124a3613aaa565b90600052602060002090600d0201600a015490506124bf613252565b81815260208082018a815260408084018b9052606084018a90524260c0850152600061010085018190528d8152600e84529081208054600180820183559183529184902085516009909302019182559151805185949293612525939085019201906132ae565b50604082015180516125419160028401916020909101906132ae565b50606082015181600301556080820151816004015560a0820151816005015560c0820151816006015560e082015181600701556101008201518160080160006101000a81548160ff0219169083600381111561259f5761259f613497565b021790555050506001600a8b815481106125bb576125bb613aaa565b90600052602060002090600d0201600a0160008282546125db9190613be5565b909155505060088054600191906000906125f6908490613be5565b9091555050604080518b8152602081018490526080818301819052601190820152701352531154d513d3914810d49150551151607a1b60a082015242606082015290513391600080516020613d27833981519152919081900360c00190a25060019998505050505050505050565b600061266e612eac565b6001600a838154811061268357612683613aaa565b90600052602060002090600d0201600c0160019054906101000a900460ff1660048111156126b3576126b3613497565b146126f75760405162461bcd60e51b8152602060048201526014602482015273141c9bda9958dd081b9bdd081054141493d5915160621b6044820152606401610161565b600a828154811061270a5761270a613aaa565b60009182526020909120600d90910201600101546001600160a01b031633148061273e57506001546001600160a01b031633145b61275a5760405162461bcd60e51b815260040161016190613ba2565b600a828154811061276d5761276d613aaa565b60009182526020909120600c600d90920201015460ff161561286757600a828154811061279c5761279c613aaa565b90600052602060002090600d0201600a0154600a83815481106127c1576127c1613aaa565b90600052602060002090600d0201600b015414801561280457506000600a83815481106127f0576127f0613aaa565b90600052602060002090600d0201600a0154115b6128675760405162461bcd60e51b815260206004820152602e60248201527f416c6c206d696c6573746f6e6573206d75737420626520636f6d706c6574656460448201526d081899599bdc99481c185e5bdd5d60921b6064820152608401610161565b611c28826130d9565b6060600c6000838152602001908152602001600020805480602002602001604051908101604052809291908181526020016000905b828210156109ac576000848152602090819020604080516080810182526004860290920180546001600160a01b03168352600180820154848601526002820154928401929092526003015460ff161515606083015290835290920191016128a5565b6060600a805480602002602001604051908101604052809291908181526020016000905b82821015612bc0576000848152602090819020604080516101c081018252600d86029092018054835260018101546001600160a01b0316938301939093526002830180549293929184019161297f90613b67565b80601f01602080910402602001604051908101604052809291908181526020018280546129ab90613b67565b80156129f85780601f106129cd576101008083540402835291602001916129f8565b820191906000526020600020905b8154815290600101906020018083116129db57829003601f168201915b50505050508152602001600382018054612a1190613b67565b80601f0160208091040260200160405190810160405280929190818152602001828054612a3d90613b67565b8015612a8a5780601f10612a5f57610100808354040283529160200191612a8a565b820191906000526020600020905b815481529060010190602001808311612a6d57829003601f168201915b50505050508152602001600482018054612aa390613b67565b80601f0160208091040260200160405190810160405280929190818152602001828054612acf90613b67565b8015612b1c5780601f10612af157610100808354040283529160200191612b1c565b820191906000526020600020905b815481529060010190602001808311612aff57829003601f168201915b505050918352505060058201546020820152600682015460408201526007820154606082015260088201546080820152600982015460a0820152600a82015460c0820152600b82015460e0820152600c82015460ff80821615156101008085019190915261012090930192909104166004811115612b9c57612b9c613497565b6004811115612bad57612bad613497565b815250508152602001906001019061292b565b50505050905090565b612bd1613332565b6000828152600d602052604090205460ff16612bff5760405162461bcd60e51b815260040161016190613a7f565b600a8281548110612c1257612c12613aaa565b90600052602060002090600d0201604051806101c0016040529081600082015481526020016001820160009054906101000a90046001600160a01b03166001600160a01b03166001600160a01b03168152602001600282018054612c7590613b67565b80601f0160208091040260200160405190810160405280929190818152602001828054612ca190613b67565b8015612cee5780601f10612cc357610100808354040283529160200191612cee565b820191906000526020600020905b815481529060010190602001808311612cd157829003601f168201915b50505050508152602001600382018054612d0790613b67565b80601f0160208091040260200160405190810160405280929190818152602001828054612d3390613b67565b8015612d805780601f10612d5557610100808354040283529160200191612d80565b820191906000526020600020905b815481529060010190602001808311612d6357829003601f168201915b50505050508152602001600482018054612d9990613b67565b80601f0160208091040260200160405190810160405280929190818152602001828054612dc590613b67565b8015612e125780601f10612de757610100808354040283529160200191612e12565b820191906000526020600020905b815481529060010190602001808311612df557829003601f168201915b505050918352505060058201546020820152600682015460408201526007820154606082015260088201546080820152600982015460a0820152600a82015460c0820152600b82015460e0820152600c82015460ff80821615156101008085019190915261012090930192909104166004811115612e9257612e92613497565b6004811115612ea357612ea3613497565b90525092915050565b60026000541415612eff5760405162461bcd60e51b815260206004820152601f60248201527f5265656e7472616e637947756172643a207265656e7472616e742063616c6c006044820152606401610161565b6002600055565b60005b6000828152600c6020526040902054811015613070576000828152600c60205260408120805483908110612f3f57612f3f613aaa565b60009182526020808320600490920290910154858352600c9091526040822080546001600160a01b0390921693509084908110612f7e57612f7e613aaa565b90600052602060002090600402016001015490506001600c60008681526020019081526020016000208481548110612fb857612fb8613aaa565b906000526020600020906004020160030160006101000a81548160ff02191690831515021790555042600c6000868152602001908152602001600020848154811061300557613005613aaa565b9060005260206000209060040201600201819055506130248282613074565b60016005600101600082825461303a9190613bfd565b909155505060078054829190600090613054908490613bfd565b925050819055505050808061306890613c14565b915050612f09565b5050565b6000826001600160a01b03168260405160006040518083038185875af1925050503d80600081146130c1576040519150601f19603f3d011682016040523d82523d6000602084013e6130c6565b606091505b50509050806130d457600080fd5b505050565b6000600a82815481106130ee576130ee613aaa565b90600052602060002090600d020160060154905060006064600254836131149190613cc5565b61311e9190613ce4565b90506004600a848154811061313557613135613aaa565b60009182526020909120600c600d9092020101805461ff00191661010083600481111561316457613164613497565b02179055506131ab600a848154811061317f5761317f613aaa565b600091825260209091206001600d9092020101546001600160a01b03166131a68385613bfd565b613074565b6001546131c1906001600160a01b031682613074565b600a83815481106131d4576131d4613aaa565b90600052602060002090600d020160060154600460008282546131f79190613bfd565b9091555050604080518481526060602082018190526010908201526f141493d29150d508141052510813d55560821b6080820152428183015290513391600080516020613d07833981519152919081900360a00190a2505050565b6040518061012001604052806000815260200160608152602001606081526020016000815260200160008152602001600081526020016000815260200160008152602001600060038111156132a9576132a9613497565b905290565b8280546132ba90613b67565b90600052602060002090601f0160209004810192826132dc5760008555613322565b82601f106132f557805160ff1916838001178555613322565b82800160010185558215613322579182015b82811115613322578251825591602001919060010190613307565b5061332e9291506133b7565b5090565b604051806101c001604052806000815260200160006001600160a01b0316815260200160608152602001606081526020016060815260200160008152602001600081526020016000815260200160008152602001600081526020016000815260200160008152602001600015158152602001600060048111156132a9576132a9613497565b5b8082111561332e57600081556001016133b8565b60208082526023908201527f557365206261636b50726f6a65637420746f2066756e64207468652070726f6a6040820152621958dd60ea1b606082015260800190565b6000806040838503121561342257600080fd5b50508035926020909101359150565b60006020828403121561344357600080fd5b5035919050565b6000815180845260005b8181101561347057602081850181015186830182015201613454565b81811115613482576000602083870101525b50601f01601f19169290920160200192915050565b634e487b7160e01b600052602160045260246000fd5b600481106134bd576134bd613497565b9052565b60006101208251845260208301518160208601526134e18286018261344a565b915050604083015184820360408601526134fb828261344a565b915050606083015160608501526080830151608085015260a083015160a085015260c083015160c085015260e083015160e085015261010080840151613543828701826134ad565b5090949350505050565b6000602080830181845280855180835260408601915060408160051b870101925083870160005b828110156135a257603f198886030184526135908583516134c1565b94509285019290850190600101613574565b5092979650505050505050565b6000806000606084860312156135c457600080fd5b8335925060208401356001600160a01b03811681146135e257600080fd5b929592945050506040919091013590565b60208152600061360660208301846134c1565b9392505050565b80358015158114610b4c57600080fd5b60008060006060848603121561363257600080fd5b83359250602084013591506136496040850161360d565b90509250925092565b634e487b7160e01b600052604160045260246000fd5b600082601f83011261367957600080fd5b813567ffffffffffffffff8082111561369457613694613652565b604051601f8301601f19908116603f011681019082821181831017156136bc576136bc613652565b816040528381528660208588010111156136d557600080fd5b836020870160208301376000602085830101528094505050505092915050565b600080600080600060a0868803121561370d57600080fd5b85359450602086013567ffffffffffffffff8082111561372c57600080fd5b61373889838a01613668565b9550604088013591508082111561374e57600080fd5b61375a89838a01613668565b9450606088013591508082111561377057600080fd5b5061377d88828901613668565b95989497509295608001359392505050565b60008060008060008060c087890312156137a857600080fd5b863567ffffffffffffffff808211156137c057600080fd5b6137cc8a838b01613668565b975060208901359150808211156137e257600080fd5b6137ee8a838b01613668565b9650604089013591508082111561380457600080fd5b5061381189828a01613668565b945050606087013592506080870135915061382e60a0880161360d565b90509295509295509295565b6000806000806080858703121561385057600080fd5b84359350602085013567ffffffffffffffff8082111561386f57600080fd5b61387b88838901613668565b9450604087013591508082111561389157600080fd5b5061389e87828801613668565b949793965093946060013593505050565b602080825282518282018190526000919060409081850190868401855b8281101561391157815180516001600160a01b0316855286810151878601528581015186860152606090810151151590850152608090930192908501906001016138cc565b5091979650505050505050565b600581106134bd576134bd613497565b60006101c082518452602083015161395160208601826001600160a01b03169052565b5060408301518160408601526139698286018261344a565b91505060608301518482036060860152613983828261344a565b9150506080830151848203608086015261399d828261344a565b91505060a083015160a085015260c083015160c085015260e083015160e085015261010080840151818601525061012080840151818601525061014080840151818601525061016080840151818601525061018080840151613a028287018215159052565b50506101a0808401516135438287018261391e565b6000602080830181845280855180835260408601915060408160051b870101925083870160005b828110156135a257603f19888603018452613a5a85835161392e565b94509285019290850190600101613a3e565b602081526000613606602083018461392e565b602080825260119082015270141c9bda9958dd081b9bdd08199bdd5b99607a1b604082015260600190565b634e487b7160e01b600052603260045260246000fd5b60208082526023908201527f50726f6a65637420646f6573206e6f7420737570706f7274206d696c6573746f6040820152626e657360e81b606082015260800190565b602080825260139082015272135a5b195cdd1bdb99481b9bdd08199bdd5b99606a1b604082015260600190565b6020808252601e908201527f4d696c6573746f6e65206e6f7420696e2070656e64696e672073746174650000604082015260600190565b600181811c90821680613b7b57607f821691505b60208210811415613b9c57634e487b7160e01b600052602260045260246000fd5b50919050565b602080825260139082015272556e617574686f72697a656420456e7469747960681b604082015260600190565b634e487b7160e01b600052601160045260246000fd5b60008219821115613bf857613bf8613bcf565b500190565b600082821015613c0f57613c0f613bcf565b500390565b6000600019821415613c2857613c28613bcf565b5060010190565b848152836020820152608060408201526000613c4e608083018561344a565b905082606083015295945050505050565b6020808252601590820152745469746c652063616e6e6f7420626520656d70747960581b604082015260600190565b6020808252601b908201527f4465736372697074696f6e2063616e6e6f7420626520656d7074790000000000604082015260600190565b6000816000190483118215151615613cdf57613cdf613bcf565b500290565b600082613d0157634e487b7160e01b600052601260045260246000fd5b50049056feaee8e5d3bbb2f71a951b5632cee20f7ac487b9f8ab4f66a236f7694b13af7c6a5746ae9f9762fec838e38d732cc4701005769d27ea24780ed3eac3dcbd2449aea2646970667358221220a652c15dda346d836ddedd095c6d8bdaee609496bd4c1de480d673c3b13579c864736f6c634300080b0033",
  "linkReferences": {},
  "deployedLinkReferences": {}
}